{
  "contractName": "Ballot",
  "abi": [
    {
      "constant": false,
      "inputs": [
        {
          "name": "id",
          "type": "uint256"
        }
      ],
      "name": "vote",
      "outputs": [],
      "payable": false,
      "stateMutability": "nonpayable",
      "type": "function"
    },
    {
      "constant": true,
      "inputs": [],
      "name": "getCandidates",
      "outputs": [
        {
          "name": "_data",
          "type": "uint256[3]"
        }
      ],
      "payable": false,
      "stateMutability": "view",
      "type": "function"
    },
    {
      "constant": true,
      "inputs": [
        {
          "name": "id",
          "type": "uint256"
        }
      ],
      "name": "getCounter",
      "outputs": [
        {
          "name": "_counter",
          "type": "uint256"
        }
      ],
      "payable": false,
      "stateMutability": "view",
      "type": "function"
    },
    {
      "constant": false,
      "inputs": [],
      "name": "voteChoi",
      "outputs": [],
      "payable": false,
      "stateMutability": "nonpayable",
      "type": "function"
    },
    {
      "constant": true,
      "inputs": [],
      "name": "getWiner",
      "outputs": [
        {
          "name": "_id",
          "type": "uint256"
        }
      ],
      "payable": false,
      "stateMutability": "view",
      "type": "function"
    },
    {
      "inputs": [],
      "payable": false,
      "stateMutability": "nonpayable",
      "type": "constructor"
    },
    {
      "anonymous": false,
      "inputs": [
        {
          "indexed": false,
          "name": "id",
          "type": "uint256"
        },
        {
          "indexed": false,
          "name": "counter",
          "type": "uint256"
        }
      ],
      "name": "VoteResult",
      "type": "event"
    },
    {
      "anonymous": false,
      "inputs": [
        {
          "indexed": false,
          "name": "id",
          "type": "uint256"
        }
      ],
      "name": "Test",
      "type": "event"
    }
  ],
  "bytecode": "0x6060604052600080556000600155341561001857600080fd5b600033600260006101000a81548173ffffffffffffffffffffffffffffffffffffffff021916908373ffffffffffffffffffffffffffffffffffffffff160217905550600090505b60038110156100aa57602060405190810160405280600081525060036000600184018152602001908152602001600020600082015181600001559050508080600101915050610060565b50610361806100ba6000396000f30060606040526004361061006d576000357c0100000000000000000000000000000000000000000000000000000000900463ffffffff1680630121b93f1461007257806306a49fce14610095578063214aed45146100e65780637107ac781461011d5780638fafa6dc14610132575b600080fd5b341561007d57600080fd5b610093600480803590602001909190505061015b565b005b34156100a057600080fd5b6100a8610213565b6040518082600360200280838360005b838110156100d35780820151818401526020810190506100b8565b5050505090500191505060405180910390f35b34156100f157600080fd5b61010760048080359060200190919050506102aa565b6040518082815260200191505060405180910390f35b341561012857600080fd5b6101306102ca565b005b341561013d57600080fd5b610145610304565b6040518082815260200191505060405180910390f35b6000600360008381526020019081526020016000209050806000016000815480929190600101919050555060015460036000848152602001908152602001600020600001541015156101cc578160008190555060036000838152602001908152602001600020600001546001819055505b7fb5044898ac121753cae58c17540d8846ce1489edc10acbaca43f292622c9cf7f828260000154604051808381526020018281526020019250505060405180910390a15050565b61021b61030d565b600080600090505b6003811015610266576003600060018301815260200190815260200160002060000154828260038110151561025457fe5b01819055508080600101915050610223565b8160038060200260405190810160405280929190826003801561029e576020028201915b81548152602001906001019080831161028a575b50505050509250505090565b600060036000838152602001908152602001600020600001549050919050565b7f63a242a632efe33c0e210e04e4173612a17efa4f16aa4890bc7e46caece80de060016040518082815260200191505060405180910390a1565b60008054905090565b6060604051908101604052806003905b600081526020019060019003908161031d57905050905600a165627a7a7230582019ad9d8c97519dc9c914f199aaeb2ffbd1d3bec7e8f31062b110be5295da578a0029",
  "source": "pragma solidity ^0.4.18;\r\ncontract Ballot {\r\n\r\n   uint winer = 0;\r\n   uint max = 0;\r\n   address owner;\r\n   struct Candidate {\r\n       uint counter;\r\n   }\r\n\r\n   mapping (uint => Candidate) candidates;\r\n   mapping (address => uint) voters;\r\n\r\n   event VoteResult(uint id, uint counter);\r\n   event Test(uint id);\r\n\r\n   function Ballot () public {\r\n       owner = msg.sender;\r\n\r\n      for (uint i = 0; i < 3 ;i++){\r\n          candidates[i+1] = Candidate(0);\r\n      }\r\n   }\r\n\r\n   function vote (uint id) public {\r\n        Candidate storage candidate = candidates[id];\r\n\r\n        candidate.counter ++;\r\n\r\n        if (candidates[id].counter >= max){\r\n            winer = id;\r\n            max = candidates[id].counter;\r\n        }\r\n\r\n        VoteResult(id, candidate.counter);\r\n   }\r\n\r\n   function getCounter (uint id) public constant returns (uint _counter) {\r\n       _counter = candidates[id].counter;\r\n   }\r\n\r\n   function getWiner () public constant returns (uint _id) {\r\n       _id =  winer;\r\n   }\r\n\r\n   function voteChoi () public {\r\n      Test(1);\r\n   }\r\n\r\n   function getCandidates () public constant returns (uint[3] _data) {\r\n        uint[3] data;\r\n        for (uint i = 0; i < 3 ;i++){\r\n            data[i] = candidates[i+1].counter;\r\n        }\r\n       _data =  data;\r\n   }\r\n}\r\n",
  "sourcePath": "/Users/longta/Documents/WORK/WS/BLOCKCHAIN/truffle-ballot/contracts/Ballot.sol",
  "compiler": {
    "name": "solc",
    "version": "0.4.18+commit.9cf6e910.Emscripten.clang"
  },
  "schemaVersion": "1.0.1",
  "updatedAt": "2017-12-12T13:47:01.340Z"
}