{
  "contractName": "Ballot",
  "abi": [
    {
      "constant": false,
      "inputs": [
        {
          "name": "id",
          "type": "uint256"
        }
      ],
      "name": "vote",
      "outputs": [],
      "payable": false,
      "stateMutability": "nonpayable",
      "type": "function"
    },
    {
      "constant": false,
      "inputs": [
        {
          "name": "id",
          "type": "uint256"
        }
      ],
      "name": "getCandidates",
      "outputs": [
        {
          "name": "",
          "type": "uint256[3]"
        }
      ],
      "payable": false,
      "stateMutability": "nonpayable",
      "type": "function"
    },
    {
      "constant": true,
      "inputs": [
        {
          "name": "id",
          "type": "uint256"
        }
      ],
      "name": "getCounter",
      "outputs": [
        {
          "name": "_counter",
          "type": "uint256"
        }
      ],
      "payable": false,
      "stateMutability": "view",
      "type": "function"
    },
    {
      "inputs": [],
      "payable": false,
      "stateMutability": "view",
      "type": "function",
      "constant": true,
      "name": "getWiner",
      "outputs": [
        {
          "name": "_id",
          "type": "uint256"
        }
      ]
    },
    {
      "inputs": [],
      "payable": false,
      "stateMutability": "nonpayable",
      "type": "constructor"
    }
  ],
  "bytecode": "0x6060604052600080556000600155341561001857600080fd5b600033600260006101000a81548173ffffffffffffffffffffffffffffffffffffffff021916908373ffffffffffffffffffffffffffffffffffffffff160217905550600090505b60038110156100aa57602060405190810160405280600081525060036000600184018152602001908152602001600020600082015181600001559050508080600101915050610060565b506102c4806100ba6000396000f300606060405260043610610062576000357c0100000000000000000000000000000000000000000000000000000000900463ffffffff1680630121b93f1461006757806306a49fce1461008a578063214aed45146100db5780638fafa6dc14610112575b600080fd5b341561007257600080fd5b610088600480803590602001909190505061013b565b005b341561009557600080fd5b61009d6101b0565b6040518082600360200280838360005b838110156100c85780820151818401526020810190506100ad565b5050505090500191505060405180910390f35b34156100e657600080fd5b6100fc6004808035906020019091905050610247565b6040518082815260200191505060405180910390f35b341561011d57600080fd5b610125610267565b6040518082815260200191505060405180910390f35b6000600360008381526020019081526020016000209050806000016000815480929190600101919050555060015460036000848152602001908152602001600020600001541015156101ac578160008190555060036000838152602001908152602001600020600001546001819055505b5050565b6101b8610270565b600080600090505b600381101561020357600360006001830181526020019081526020016000206000015482826003811015156101f157fe5b018190555080806001019150506101c0565b8160038060200260405190810160405280929190826003801561023b576020028201915b815481526020019060010190808311610227575b50505050509250505090565b600060036000838152602001908152602001600020600001549050919050565b60008054905090565b6060604051908101604052806003905b600081526020019060019003908161028057905050905600a165627a7a72305820888d3b27ec8a37aa99c01223e539a0dda0f778123f55f90ca5dfe574c8f8691d0029",
  "source": "pragma solidity ^0.4.18;\r\ncontract Ballot {\r\n\r\n   uint winer = 0;\r\n   uint max = 0;\r\n   address owner;\r\n   struct Candidate {\r\n       uint counter;\r\n   }\r\n\r\n   mapping (uint => Candidate) candidates;\r\n   mapping (address => uint) voters;\r\n\r\n   function Ballot () public {\r\n       owner = msg.sender;\r\n\r\n      for (uint i = 0; i < 3 ;i++){\r\n          candidates[i+1] = Candidate(0);\r\n      }\r\n   }\r\n\r\n   function vote (uint id) public {\r\n        Candidate storage candidate = candidates[id];\r\n\r\n        candidate.counter ++;\r\n\r\n        if (candidates[id].counter >= max){\r\n            winer = id;\r\n            max = candidates[id].counter;\r\n        }\r\n   }\r\n\r\n   function getCounter (uint id) public constant returns (uint _counter) {\r\n       _counter = candidates[id].counter;\r\n   }\r\n\r\n   function getWiner () public constant returns (uint _id) {\r\n       _id =  winer;\r\n   }\r\n\r\n   function getCandidates () public returns (uint[3]) {\r\n        uint[3] storage data;\r\n        for (uint i = 0; i < 3 ;i++){\r\n            data[i] = candidates[i+1].counter;\r\n        }\r\n       return data;\r\n   }\r\n}\r\n",
  "sourcePath": "D:\\WORK\\WORKSPACE\\BLOCKCHAIN\\Ethereum\\Dapps\\truffle-ballot\\contracts\\Ballot.sol",
  "compiler": {
    "name": "solc",
    "version": "0.4.18+commit.9cf6e910.Emscripten.clang"
  },
  "schemaVersion": "1.0.1",
  "updatedAt": "2017-12-11T09:44:54.017Z"
}